{
  "_format": "hh-sol-artifact-1",
  "contractName": "DirectConsumerContract",
  "sourceName": "contracts/DirectConsumer.sol",
  "abi": [
    {
      "inputs": [
        {
          "internalType": "address",
          "name": "_linkToken",
          "type": "address"
        },
        {
          "internalType": "address",
          "name": "_oracle",
          "type": "address"
        },
        {
          "internalType": "string",
          "name": "_jobId",
          "type": "string"
        },
        {
          "internalType": "string",
          "name": "_statsHost",
          "type": "string"
        }
      ],
      "stateMutability": "nonpayable",
      "type": "constructor"
    },
    {
      "anonymous": false,
      "inputs": [
        {
          "indexed": true,
          "internalType": "bytes32",
          "name": "id",
          "type": "bytes32"
        }
      ],
      "name": "ChainlinkCancelled",
      "type": "event"
    },
    {
      "anonymous": false,
      "inputs": [
        {
          "indexed": true,
          "internalType": "bytes32",
          "name": "id",
          "type": "bytes32"
        }
      ],
      "name": "ChainlinkFulfilled",
      "type": "event"
    },
    {
      "anonymous": false,
      "inputs": [
        {
          "indexed": true,
          "internalType": "bytes32",
          "name": "id",
          "type": "bytes32"
        }
      ],
      "name": "ChainlinkRequested",
      "type": "event"
    },
    {
      "anonymous": false,
      "inputs": [
        {
          "indexed": true,
          "internalType": "address",
          "name": "from",
          "type": "address"
        },
        {
          "indexed": true,
          "internalType": "address",
          "name": "to",
          "type": "address"
        }
      ],
      "name": "OwnershipTransferRequested",
      "type": "event"
    },
    {
      "anonymous": false,
      "inputs": [
        {
          "indexed": true,
          "internalType": "address",
          "name": "from",
          "type": "address"
        },
        {
          "indexed": true,
          "internalType": "address",
          "name": "to",
          "type": "address"
        }
      ],
      "name": "OwnershipTransferred",
      "type": "event"
    },
    {
      "inputs": [],
      "name": "acceptOwnership",
      "outputs": [],
      "stateMutability": "nonpayable",
      "type": "function"
    },
    {
      "inputs": [
        {
          "internalType": "bytes32",
          "name": "_requestId",
          "type": "bytes32"
        },
        {
          "internalType": "uint256",
          "name": "_payment",
          "type": "uint256"
        },
        {
          "internalType": "bytes4",
          "name": "_callbackFunctionId",
          "type": "bytes4"
        },
        {
          "internalType": "uint256",
          "name": "_expiration",
          "type": "uint256"
        }
      ],
      "name": "cancelRequest",
      "outputs": [],
      "stateMutability": "nonpayable",
      "type": "function"
    },
    {
      "inputs": [
        {
          "internalType": "bytes32",
          "name": "_requestId",
          "type": "bytes32"
        },
        {
          "internalType": "uint64",
          "name": "documents",
          "type": "uint64"
        },
        {
          "internalType": "uint64",
          "name": "patients",
          "type": "uint64"
        },
        {
          "internalType": "uint256",
          "name": "time",
          "type": "uint256"
        }
      ],
      "name": "fulfillLatestStatistics",
      "outputs": [],
      "stateMutability": "nonpayable",
      "type": "function"
    },
    {
      "inputs": [
        {
          "internalType": "bytes32",
          "name": "_requestId",
          "type": "bytes32"
        },
        {
          "internalType": "uint64",
          "name": "documents",
          "type": "uint64"
        },
        {
          "internalType": "uint64",
          "name": "patients",
          "type": "uint64"
        },
        {
          "internalType": "uint256",
          "name": "time",
          "type": "uint256"
        }
      ],
      "name": "fulfillStatisticsByPeriod",
      "outputs": [],
      "stateMutability": "nonpayable",
      "type": "function"
    },
    {
      "inputs": [
        {
          "internalType": "uint32",
          "name": "period",
          "type": "uint32"
        }
      ],
      "name": "getByPeriod",
      "outputs": [
        {
          "internalType": "uint64",
          "name": "",
          "type": "uint64"
        },
        {
          "internalType": "uint64",
          "name": "",
          "type": "uint64"
        },
        {
          "internalType": "uint256",
          "name": "",
          "type": "uint256"
        }
      ],
      "stateMutability": "view",
      "type": "function"
    },
    {
      "inputs": [],
      "name": "getChainlinkToken",
      "outputs": [
        {
          "internalType": "address",
          "name": "",
          "type": "address"
        }
      ],
      "stateMutability": "view",
      "type": "function"
    },
    {
      "inputs": [],
      "name": "getTotal",
      "outputs": [
        {
          "internalType": "uint64",
          "name": "",
          "type": "uint64"
        },
        {
          "internalType": "uint64",
          "name": "",
          "type": "uint64"
        },
        {
          "internalType": "uint256",
          "name": "",
          "type": "uint256"
        }
      ],
      "stateMutability": "view",
      "type": "function"
    },
    {
      "inputs": [],
      "name": "owner",
      "outputs": [
        {
          "internalType": "address",
          "name": "",
          "type": "address"
        }
      ],
      "stateMutability": "view",
      "type": "function"
    },
    {
      "inputs": [
        {
          "internalType": "uint256",
          "name": "",
          "type": "uint256"
        }
      ],
      "name": "periods",
      "outputs": [
        {
          "internalType": "uint64",
          "name": "documents",
          "type": "uint64"
        },
        {
          "internalType": "uint64",
          "name": "patients",
          "type": "uint64"
        },
        {
          "internalType": "uint256",
          "name": "time",
          "type": "uint256"
        }
      ],
      "stateMutability": "view",
      "type": "function"
    },
    {
      "inputs": [],
      "name": "requestLatestStatistics",
      "outputs": [],
      "stateMutability": "nonpayable",
      "type": "function"
    },
    {
      "inputs": [
        {
          "internalType": "string",
          "name": "period",
          "type": "string"
        }
      ],
      "name": "requestStatisticsByPeriod",
      "outputs": [],
      "stateMutability": "nonpayable",
      "type": "function"
    },
    {
      "inputs": [
        {
          "internalType": "address",
          "name": "_oracle",
          "type": "address"
        }
      ],
      "name": "setOracle",
      "outputs": [],
      "stateMutability": "nonpayable",
      "type": "function"
    },
    {
      "inputs": [],
      "name": "total",
      "outputs": [
        {
          "internalType": "uint64",
          "name": "documents",
          "type": "uint64"
        },
        {
          "internalType": "uint64",
          "name": "patients",
          "type": "uint64"
        },
        {
          "internalType": "uint256",
          "name": "time",
          "type": "uint256"
        }
      ],
      "stateMutability": "view",
      "type": "function"
    },
    {
      "inputs": [
        {
          "internalType": "address",
          "name": "to",
          "type": "address"
        }
      ],
      "name": "transferOwnership",
      "outputs": [],
      "stateMutability": "nonpayable",
      "type": "function"
    },
    {
      "inputs": [],
      "name": "withdrawLink",
      "outputs": [],
      "stateMutability": "nonpayable",
      "type": "function"
    }
  ],
  "bytecode": "0x608060405260016004553480156200001657600080fd5b50604051620033be380380620033be83398181016040528101906200003c9190620006d1565b338060008073ffffffffffffffffffffffffffffffffffffffff168273ffffffffffffffffffffffffffffffffffffffff161415620000b2576040517f08c379a0000000000000000000000000000000000000000000000000000000008152600401620000a990620007e2565b60405180910390fd5b81600660006101000a81548173ffffffffffffffffffffffffffffffffffffffff021916908373ffffffffffffffffffffffffffffffffffffffff160217905550600073ffffffffffffffffffffffffffffffffffffffff168173ffffffffffffffffffffffffffffffffffffffff16146200013a5762000139816200026560201b60201c565b5b5050506200014e846200039760201b60201c565b6200015f83620003db60201b60201c565b600a670de0b6b3a764000060016200017891906200083d565b620001849190620008cd565b6008819055506040518060600160405280600067ffffffffffffffff168152602001600067ffffffffffffffff1681526020016000815250600c60008201518160000160006101000a81548167ffffffffffffffff021916908367ffffffffffffffff16021790555060208201518160000160086101000a81548167ffffffffffffffff021916908367ffffffffffffffff1602179055506040820151816001015590505080600a9080519060200190620002419291906200041f565b5081600990805190602001906200025a9291906200041f565b5050505050620009dc565b3373ffffffffffffffffffffffffffffffffffffffff168173ffffffffffffffffffffffffffffffffffffffff161415620002d7576040517f08c379a0000000000000000000000000000000000000000000000000000000008152600401620002ce9062000955565b60405180910390fd5b80600760006101000a81548173ffffffffffffffffffffffffffffffffffffffff021916908373ffffffffffffffffffffffffffffffffffffffff1602179055508073ffffffffffffffffffffffffffffffffffffffff16600660009054906101000a900473ffffffffffffffffffffffffffffffffffffffff1673ffffffffffffffffffffffffffffffffffffffff167fed8889f560326eb138920d842192f0eb3dd22b4f139c87a2c57538e05bae127860405160405180910390a350565b80600260006101000a81548173ffffffffffffffffffffffffffffffffffffffff021916908373ffffffffffffffffffffffffffffffffffffffff16021790555050565b80600360006101000a81548173ffffffffffffffffffffffffffffffffffffffff021916908373ffffffffffffffffffffffffffffffffffffffff16021790555050565b8280546200042d90620009a6565b90600052602060002090601f0160209004810192826200045157600085556200049d565b82601f106200046c57805160ff19168380011785556200049d565b828001600101855582156200049d579182015b828111156200049c5782518255916020019190600101906200047f565b5b509050620004ac9190620004b0565b5090565b5b80821115620004cb576000816000905550600101620004b1565b5090565b6000604051905090565b600080fd5b600080fd5b600073ffffffffffffffffffffffffffffffffffffffff82169050919050565b60006200051082620004e3565b9050919050565b620005228162000503565b81146200052e57600080fd5b50565b600081519050620005428162000517565b92915050565b600080fd5b600080fd5b6000601f19601f8301169050919050565b7f4e487b7100000000000000000000000000000000000000000000000000000000600052604160045260246000fd5b6200059d8262000552565b810181811067ffffffffffffffff82111715620005bf57620005be62000563565b5b80604052505050565b6000620005d4620004cf565b9050620005e2828262000592565b919050565b600067ffffffffffffffff82111562000605576200060462000563565b5b620006108262000552565b9050602081019050919050565b60005b838110156200063d57808201518184015260208101905062000620565b838111156200064d576000848401525b50505050565b60006200066a6200066484620005e7565b620005c8565b9050828152602081018484840111156200068957620006886200054d565b5b620006968482856200061d565b509392505050565b600082601f830112620006b657620006b562000548565b5b8151620006c884826020860162000653565b91505092915050565b60008060008060808587031215620006ee57620006ed620004d9565b5b6000620006fe8782880162000531565b9450506020620007118782880162000531565b935050604085015167ffffffffffffffff811115620007355762000734620004de565b5b62000743878288016200069e565b925050606085015167ffffffffffffffff811115620007675762000766620004de565b5b62000775878288016200069e565b91505092959194509250565b600082825260208201905092915050565b7f43616e6e6f7420736574206f776e657220746f207a65726f0000000000000000600082015250565b6000620007ca60188362000781565b9150620007d78262000792565b602082019050919050565b60006020820190508181036000830152620007fd81620007bb565b9050919050565b6000819050919050565b7f4e487b7100000000000000000000000000000000000000000000000000000000600052601160045260246000fd5b60006200084a8262000804565b9150620008578362000804565b9250817fffffffffffffffffffffffffffffffffffffffffffffffffffffffffffffffff04831182151516156200089357620008926200080e565b5b828202905092915050565b7f4e487b7100000000000000000000000000000000000000000000000000000000600052601260045260246000fd5b6000620008da8262000804565b9150620008e78362000804565b925082620008fa57620008f96200089e565b5b828204905092915050565b7f43616e6e6f74207472616e7366657220746f2073656c66000000000000000000600082015250565b60006200093d60178362000781565b91506200094a8262000905565b602082019050919050565b6000602082019050818103600083015262000970816200092e565b9050919050565b7f4e487b7100000000000000000000000000000000000000000000000000000000600052602260045260246000fd5b60006002820490506001821680620009bf57607f821691505b60208210811415620009d657620009d562000977565b5b50919050565b6129d280620009ec6000396000f3fe608060405234801561001057600080fd5b50600436106100f55760003560e01c80637adbf97311610097578063aa756d8511610066578063aa756d851461022c578063ea4a110414610236578063ec65d0f814610268578063f2fde38b14610284576100f5565b80637adbf973146101cc5780638da5cb5b146101e85780638dc654a214610206578063a84c8f0a14610210576100f5565b8063643a5229116100d3578063643a52291461015457806366d8ba8e14610170578063775a25e3146101a257806379ba5097146101c2576100f5565b8063165d35e1146100fa5780632452145f146101185780632ddbd13a14610134575b600080fd5b6101026102a0565b60405161010f91906119fa565b60405180910390f35b610132600480360381019061012d9190611ad5565b6102af565b005b61013c610468565b60405161014b93929190611b5a565b60405180910390f35b61016e60048036038101906101699190611ad5565b6104a8565b005b61018a60048036038101906101859190611bcd565b610650565b60405161019993929190611b5a565b60405180910390f35b6101aa6106e1565b6040516101b993929190611b5a565b60405180910390f35b6101ca61072b565b005b6101e660048036038101906101e19190611c26565b6108c2565b005b6101f06108d6565b6040516101fd91906119fa565b60405180910390f35b61020e610900565b005b61022a60048036038101906102259190611d99565b610a4d565b005b610234610b7a565b005b610250600480360381019061024b9190611de2565b610d0e565b60405161025f93929190611b5a565b60405180910390f35b610282600480360381019061027d9190611e67565b610d60565b005b61029e60048036038101906102999190611c26565b610d7a565b005b60006102aa610d8e565b905090565b836005600082815260200190815260200160002060009054906101000a900473ffffffffffffffffffffffffffffffffffffffff1673ffffffffffffffffffffffffffffffffffffffff163373ffffffffffffffffffffffffffffffffffffffff1614610351576040517f08c379a000000000000000000000000000000000000000000000000000000000815260040161034890611f51565b60405180910390fd5b6005600082815260200190815260200160002060006101000a81549073ffffffffffffffffffffffffffffffffffffffff0219169055807f7cc135e0cebb02c3480ae5d74d377283180a2601f8f644edf7987b009316c63a60405160405180910390a260405180606001604052808567ffffffffffffffff1681526020018467ffffffffffffffff16815260200183815250600b600084815260200190815260200160002060008201518160000160006101000a81548167ffffffffffffffff021916908367ffffffffffffffff16021790555060208201518160000160086101000a81548167ffffffffffffffff021916908367ffffffffffffffff160217905550604082015181600101559050505050505050565b600c8060000160009054906101000a900467ffffffffffffffff16908060000160089054906101000a900467ffffffffffffffff16908060010154905083565b836005600082815260200190815260200160002060009054906101000a900473ffffffffffffffffffffffffffffffffffffffff1673ffffffffffffffffffffffffffffffffffffffff163373ffffffffffffffffffffffffffffffffffffffff161461054a576040517f08c379a000000000000000000000000000000000000000000000000000000000815260040161054190611f51565b60405180910390fd5b6005600082815260200190815260200160002060006101000a81549073ffffffffffffffffffffffffffffffffffffffff0219169055807f7cc135e0cebb02c3480ae5d74d377283180a2601f8f644edf7987b009316c63a60405160405180910390a260405180606001604052808567ffffffffffffffff1681526020018467ffffffffffffffff16815260200183815250600c60008201518160000160006101000a81548167ffffffffffffffff021916908367ffffffffffffffff16021790555060208201518160000160086101000a81548167ffffffffffffffff021916908367ffffffffffffffff160217905550604082015181600101559050505050505050565b6000806000600b60008563ffffffff16815260200190815260200160002060000160009054906101000a900467ffffffffffffffff16600b60008663ffffffff16815260200190815260200160002060000160089054906101000a900467ffffffffffffffff16600b60008763ffffffff168152602001908152602001600020600101549250925092509193909250565b6000806000600c60000160009054906101000a900467ffffffffffffffff16600c60000160089054906101000a900467ffffffffffffffff16600c60010154925092509250909192565b600760009054906101000a900473ffffffffffffffffffffffffffffffffffffffff1673ffffffffffffffffffffffffffffffffffffffff163373ffffffffffffffffffffffffffffffffffffffff16146107bb576040517f08c379a00000000000000000000000000000000000000000000000000000000081526004016107b290611fbd565b60405180910390fd5b6000600660009054906101000a900473ffffffffffffffffffffffffffffffffffffffff16905033600660006101000a81548173ffffffffffffffffffffffffffffffffffffffff021916908373ffffffffffffffffffffffffffffffffffffffff1602179055506000600760006101000a81548173ffffffffffffffffffffffffffffffffffffffff021916908373ffffffffffffffffffffffffffffffffffffffff1602179055503373ffffffffffffffffffffffffffffffffffffffff168173ffffffffffffffffffffffffffffffffffffffff167f8be0079c531659141344cd1fd0a4f28419497f9722a3daafe3b4186f6b6457e060405160405180910390a350565b6108ca610db8565b6108d381610e4a565b50565b6000600660009054906101000a900473ffffffffffffffffffffffffffffffffffffffff16905090565b610908610db8565b6000610912610d8e565b90508073ffffffffffffffffffffffffffffffffffffffff1663a9059cbb338373ffffffffffffffffffffffffffffffffffffffff166370a08231306040518263ffffffff1660e01b815260040161096a91906119fa565b602060405180830381865afa158015610987573d6000803e3d6000fd5b505050506040513d601f19601f820116820180604052508101906109ab9190611ff2565b6040518363ffffffff1660e01b81526004016109c892919061201f565b6020604051808303816000875af11580156109e7573d6000803e3d6000fd5b505050506040513d601f19601f82011682018060405250810190610a0b9190612080565b610a4a576040517f08c379a0000000000000000000000000000000000000000000000000000000008152600401610a41906120f9565b60405180910390fd5b50565b610a55610db8565b6000610afb610aed60098054610a6a90612148565b80601f0160208091040260200160405190810160405280929190818152602001828054610a9690612148565b8015610ae35780601f10610ab857610100808354040283529160200191610ae3565b820191906000526020600020905b815481529060010190602001808311610ac657829003601f168201915b5050505050610e8e565b30632452145f60e01b610eb8565b9050610b696040518060400160405280600381526020017f75726c0000000000000000000000000000000000000000000000000000000000815250600a84604051602001610b4a9291906122ae565b60405160208183030381529060405283610ee99092919063ffffffff16565b610b7581600854610f1c565b505050565b610b82610db8565b6000610c28610c1a60098054610b9790612148565b80601f0160208091040260200160405190810160405280929190818152602001828054610bc390612148565b8015610c105780601f10610be557610100808354040283529160200191610c10565b820191906000526020600020905b815481529060010190602001808311610bf357829003601f168201915b5050505050610e8e565b3063643a522960e01b610eb8565b9050610cfe6040518060400160405280600381526020017f75726c0000000000000000000000000000000000000000000000000000000000815250600a8054610c7090612148565b80601f0160208091040260200160405190810160405280929190818152602001828054610c9c90612148565b8015610ce95780601f10610cbe57610100808354040283529160200191610ce9565b820191906000526020600020905b815481529060010190602001808311610ccc57829003601f168201915b505050505083610ee99092919063ffffffff16565b610d0a81600854610f1c565b5050565b600b6020528060005260406000206000915090508060000160009054906101000a900467ffffffffffffffff16908060000160089054906101000a900467ffffffffffffffff16908060010154905083565b610d68610db8565b610d7484848484610f53565b50505050565b610d82610db8565b610d8b81611066565b50565b6000600260009054906101000a900473ffffffffffffffffffffffffffffffffffffffff16905090565b600660009054906101000a900473ffffffffffffffffffffffffffffffffffffffff1673ffffffffffffffffffffffffffffffffffffffff163373ffffffffffffffffffffffffffffffffffffffff1614610e48576040517f08c379a0000000000000000000000000000000000000000000000000000000008152600401610e3f9061232d565b60405180910390fd5b565b80600360006101000a81548173ffffffffffffffffffffffffffffffffffffffff021916908373ffffffffffffffffffffffffffffffffffffffff16021790555050565b600080829050600081511415610eaa576000801b915050610eb3565b60208301519150505b919050565b610ec0611932565b610ec8611932565b610edf85858584611195909392919063ffffffff16565b9150509392505050565b610f0082846080015161124590919063ffffffff16565b610f1781846080015161124590919063ffffffff16565b505050565b6000610f4b600360009054906101000a900473ffffffffffffffffffffffffffffffffffffffff16848461126a565b905092915050565b60006005600086815260200190815260200160002060009054906101000a900473ffffffffffffffffffffffffffffffffffffffff1690506005600086815260200190815260200160002060006101000a81549073ffffffffffffffffffffffffffffffffffffffff0219169055847fe1fe3afa0f7f761ff0a8b89086790efd5140d2907ebd5b7ff6bfcb5e075fd4c560405160405180910390a28073ffffffffffffffffffffffffffffffffffffffff16636ee4d553868686866040518563ffffffff1660e01b815260040161102d949392919061236b565b600060405180830381600087803b15801561104757600080fd5b505af115801561105b573d6000803e3d6000fd5b505050505050505050565b3373ffffffffffffffffffffffffffffffffffffffff168173ffffffffffffffffffffffffffffffffffffffff1614156110d5576040517f08c379a00000000000000000000000000000000000000000000000000000000081526004016110cc906123fc565b60405180910390fd5b80600760006101000a81548173ffffffffffffffffffffffffffffffffffffffff021916908373ffffffffffffffffffffffffffffffffffffffff1602179055508073ffffffffffffffffffffffffffffffffffffffff16600660009054906101000a900473ffffffffffffffffffffffffffffffffffffffff1673ffffffffffffffffffffffffffffffffffffffff167fed8889f560326eb138920d842192f0eb3dd22b4f139c87a2c57538e05bae127860405160405180910390a350565b61119d611932565b6111ad8560800151610100611336565b508385600001818152505082856020019073ffffffffffffffffffffffffffffffffffffffff16908173ffffffffffffffffffffffffffffffffffffffff16815250508185604001907bffffffffffffffffffffffffffffffffffffffffffffffffffffffff191690817bffffffffffffffffffffffffffffffffffffffffffffffffffffffff191681525050849050949350505050565b61125282600383516113a0565b611265818361152590919063ffffffff16565b505050565b600080600454905060018161127f919061244b565b6004819055506000634042994660e01b60008087600001513089604001518760018c60800151600001516040516024016112c09897969594939291906124f6565b604051602081830303815290604052907bffffffffffffffffffffffffffffffffffffffffffffffffffffffff19166020820180517bffffffffffffffffffffffffffffffffffffffffffffffffffffffff8381831617835250505050905061132b86838684611547565b925050509392505050565b61133e61199f565b600060208361134d91906125aa565b146113795760208261135f91906125aa565b602061136b91906125db565b82611376919061244b565b91505b81836020018181525050604051808452600081528281016020016040525082905092915050565b60178167ffffffffffffffff16116113d7576113d18160058460ff16901b60ff1617846116dc90919063ffffffff16565b50611520565b60ff8167ffffffffffffffff161161142d57611406601860058460ff16901b17846116dc90919063ffffffff16565b506114278167ffffffffffffffff166001856116fc9092919063ffffffff16565b5061151f565b61ffff8167ffffffffffffffff16116114845761145d601960058460ff16901b17846116dc90919063ffffffff16565b5061147e8167ffffffffffffffff166002856116fc9092919063ffffffff16565b5061151e565b63ffffffff8167ffffffffffffffff16116114dd576114b6601a60058460ff16901b17846116dc90919063ffffffff16565b506114d78167ffffffffffffffff166004856116fc9092919063ffffffff16565b5061151d565b6114fa601b60058460ff16901b17846116dc90919063ffffffff16565b5061151b8167ffffffffffffffff166008856116fc9092919063ffffffff16565b505b5b5b5b505050565b61152d61199f565b61153f8384600001515184855161171e565b905092915050565b6000308460405160200161155c9291906126c8565b604051602081830303815290604052805190602001209050846005600083815260200190815260200160002060006101000a81548173ffffffffffffffffffffffffffffffffffffffff021916908373ffffffffffffffffffffffffffffffffffffffff160217905550807fb5e6e01e79f91267dc17b4e6314d5d4d03593d2ceee0fbb452b750bd70ea5af960405160405180910390a2600260009054906101000a900473ffffffffffffffffffffffffffffffffffffffff1673ffffffffffffffffffffffffffffffffffffffff16634000aea08685856040518463ffffffff1660e01b8152600401611652939291906126f4565b6020604051808303816000875af1158015611671573d6000803e3d6000fd5b505050506040513d601f19601f820116820180604052508101906116959190612080565b6116d4576040517f08c379a00000000000000000000000000000000000000000000000000000000081526004016116cb906127a4565b60405180910390fd5b949350505050565b6116e461199f565b6116f4838460000151518461180d565b905092915050565b61170461199f565b611715848560000151518585611864565b90509392505050565b61172661199f565b825182111561173457600080fd5b84602001518285611745919061244b565b111561177a5761177985600261176a88602001518887611765919061244b565b6118f2565b61177491906127c4565b61190e565b5b6000808651805187602083010193508088870111156117995787860182525b60208701925050505b602084106117e057805182526020826117bb919061244b565b91506020816117ca919061244b565b90506020846117d991906125db565b93506117a2565b60006001856020036101000a03905080198251168184511681811785525050508692505050949350505050565b61181561199f565b8360200151831061183b5761183a846002866020015161183591906127c4565b61190e565b5b8351805160208583010184815381861415611857576001820183525b5050508390509392505050565b61186c61199f565b8460200151848361187d919061244b565b11156118a5576118a48560028685611895919061244b565b61189f91906127c4565b61190e565b5b60006001836101006118b79190612951565b6118c191906125db565b905085518386820101858319825116178152815185880111156118e45784870182525b505085915050949350505050565b60008183111561190457829050611908565b8190505b92915050565b6000826000015190506119218383611336565b5061192c8382611525565b50505050565b6040518060a0016040528060008019168152602001600073ffffffffffffffffffffffffffffffffffffffff16815260200160007bffffffffffffffffffffffffffffffffffffffffffffffffffffffff191681526020016000815260200161199961199f565b81525090565b604051806040016040528060608152602001600081525090565b600073ffffffffffffffffffffffffffffffffffffffff82169050919050565b60006119e4826119b9565b9050919050565b6119f4816119d9565b82525050565b6000602082019050611a0f60008301846119eb565b92915050565b6000604051905090565b600080fd5b600080fd5b6000819050919050565b611a3c81611a29565b8114611a4757600080fd5b50565b600081359050611a5981611a33565b92915050565b600067ffffffffffffffff82169050919050565b611a7c81611a5f565b8114611a8757600080fd5b50565b600081359050611a9981611a73565b92915050565b6000819050919050565b611ab281611a9f565b8114611abd57600080fd5b50565b600081359050611acf81611aa9565b92915050565b60008060008060808587031215611aef57611aee611a1f565b5b6000611afd87828801611a4a565b9450506020611b0e87828801611a8a565b9350506040611b1f87828801611a8a565b9250506060611b3087828801611ac0565b91505092959194509250565b611b4581611a5f565b82525050565b611b5481611a9f565b82525050565b6000606082019050611b6f6000830186611b3c565b611b7c6020830185611b3c565b611b896040830184611b4b565b949350505050565b600063ffffffff82169050919050565b611baa81611b91565b8114611bb557600080fd5b50565b600081359050611bc781611ba1565b92915050565b600060208284031215611be357611be2611a1f565b5b6000611bf184828501611bb8565b91505092915050565b611c03816119d9565b8114611c0e57600080fd5b50565b600081359050611c2081611bfa565b92915050565b600060208284031215611c3c57611c3b611a1f565b5b6000611c4a84828501611c11565b91505092915050565b600080fd5b600080fd5b6000601f19601f8301169050919050565b7f4e487b7100000000000000000000000000000000000000000000000000000000600052604160045260246000fd5b611ca682611c5d565b810181811067ffffffffffffffff82111715611cc557611cc4611c6e565b5b80604052505050565b6000611cd8611a15565b9050611ce48282611c9d565b919050565b600067ffffffffffffffff821115611d0457611d03611c6e565b5b611d0d82611c5d565b9050602081019050919050565b82818337600083830152505050565b6000611d3c611d3784611ce9565b611cce565b905082815260208101848484011115611d5857611d57611c58565b5b611d63848285611d1a565b509392505050565b600082601f830112611d8057611d7f611c53565b5b8135611d90848260208601611d29565b91505092915050565b600060208284031215611daf57611dae611a1f565b5b600082013567ffffffffffffffff811115611dcd57611dcc611a24565b5b611dd984828501611d6b565b91505092915050565b600060208284031215611df857611df7611a1f565b5b6000611e0684828501611ac0565b91505092915050565b60007fffffffff0000000000000000000000000000000000000000000000000000000082169050919050565b611e4481611e0f565b8114611e4f57600080fd5b50565b600081359050611e6181611e3b565b92915050565b60008060008060808587031215611e8157611e80611a1f565b5b6000611e8f87828801611a4a565b9450506020611ea087828801611ac0565b9350506040611eb187828801611e52565b9250506060611ec287828801611ac0565b91505092959194509250565b600082825260208201905092915050565b7f536f75726365206d75737420626520746865206f7261636c65206f662074686560008201527f2072657175657374000000000000000000000000000000000000000000000000602082015250565b6000611f3b602883611ece565b9150611f4682611edf565b604082019050919050565b60006020820190508181036000830152611f6a81611f2e565b9050919050565b7f4d7573742062652070726f706f736564206f776e657200000000000000000000600082015250565b6000611fa7601683611ece565b9150611fb282611f71565b602082019050919050565b60006020820190508181036000830152611fd681611f9a565b9050919050565b600081519050611fec81611aa9565b92915050565b60006020828403121561200857612007611a1f565b5b600061201684828501611fdd565b91505092915050565b600060408201905061203460008301856119eb565b6120416020830184611b4b565b9392505050565b60008115159050919050565b61205d81612048565b811461206857600080fd5b50565b60008151905061207a81612054565b92915050565b60006020828403121561209657612095611a1f565b5b60006120a48482850161206b565b91505092915050565b7f556e61626c6520746f207472616e736665720000000000000000000000000000600082015250565b60006120e3601283611ece565b91506120ee826120ad565b602082019050919050565b60006020820190508181036000830152612112816120d6565b9050919050565b7f4e487b7100000000000000000000000000000000000000000000000000000000600052602260045260246000fd5b6000600282049050600182168061216057607f821691505b6020821081141561217457612173612119565b5b50919050565b600081905092915050565b60008190508160005260206000209050919050565b600081546121a781612148565b6121b1818661217a565b945060018216600081146121cc57600181146121dd57612210565b60ff19831686528186019350612210565b6121e685612185565b60005b83811015612208578154818901526001820191506020810190506121e9565b838801955050505b50505092915050565b7f2f00000000000000000000000000000000000000000000000000000000000000815250565b600081519050919050565b60005b8381101561226857808201518184015260208101905061224d565b83811115612277576000848401525b50505050565b60006122888261223f565b612292818561217a565b93506122a281856020860161224a565b80840191505092915050565b60006122ba828561219a565b91506122c582612219565b6001820191506122d5828461227d565b91508190509392505050565b7f4f6e6c792063616c6c61626c65206279206f776e657200000000000000000000600082015250565b6000612317601683611ece565b9150612322826122e1565b602082019050919050565b600060208201905081810360008301526123468161230a565b9050919050565b61235681611a29565b82525050565b61236581611e0f565b82525050565b6000608082019050612380600083018761234d565b61238d6020830186611b4b565b61239a604083018561235c565b6123a76060830184611b4b565b95945050505050565b7f43616e6e6f74207472616e7366657220746f2073656c66000000000000000000600082015250565b60006123e6601783611ece565b91506123f1826123b0565b602082019050919050565b60006020820190508181036000830152612415816123d9565b9050919050565b7f4e487b7100000000000000000000000000000000000000000000000000000000600052601160045260246000fd5b600061245682611a9f565b915061246183611a9f565b9250827fffffffffffffffffffffffffffffffffffffffffffffffffffffffffffffffff038211156124965761249561241c565b5b828201905092915050565b600081519050919050565b600082825260208201905092915050565b60006124c8826124a1565b6124d281856124ac565b93506124e281856020860161224a565b6124eb81611c5d565b840191505092915050565b60006101008201905061250c600083018b6119eb565b612519602083018a611b4b565b612526604083018961234d565b61253360608301886119eb565b612540608083018761235c565b61254d60a0830186611b4b565b61255a60c0830185611b4b565b81810360e083015261256c81846124bd565b90509998505050505050505050565b7f4e487b7100000000000000000000000000000000000000000000000000000000600052601260045260246000fd5b60006125b582611a9f565b91506125c083611a9f565b9250826125d0576125cf61257b565b5b828206905092915050565b60006125e682611a9f565b91506125f183611a9f565b9250828210156126045761260361241c565b5b828203905092915050565b6000819050919050565b600061263461262f61262a846119b9565b61260f565b6119b9565b9050919050565b600061264682612619565b9050919050565b60006126588261263b565b9050919050565b60008160601b9050919050565b60006126778261265f565b9050919050565b60006126898261266c565b9050919050565b6126a161269c8261264d565b61267e565b82525050565b6000819050919050565b6126c26126bd82611a9f565b6126a7565b82525050565b60006126d48285612690565b6014820191506126e482846126b1565b6020820191508190509392505050565b600060608201905061270960008301866119eb565b6127166020830185611b4b565b818103604083015261272881846124bd565b9050949350505050565b7f756e61626c6520746f207472616e73666572416e6443616c6c20746f206f726160008201527f636c650000000000000000000000000000000000000000000000000000000000602082015250565b600061278e602383611ece565b915061279982612732565b604082019050919050565b600060208201905081810360008301526127bd81612781565b9050919050565b60006127cf82611a9f565b91506127da83611a9f565b9250817fffffffffffffffffffffffffffffffffffffffffffffffffffffffffffffffff04831182151516156128135761281261241c565b5b828202905092915050565b60008160011c9050919050565b6000808291508390505b6001851115612875578086048111156128515761285061241c565b5b60018516156128605780820291505b808102905061286e8561281e565b9450612835565b94509492505050565b60008261288e576001905061294a565b8161289c576000905061294a565b81600181146128b257600281146128bc576128eb565b600191505061294a565b60ff8411156128ce576128cd61241c565b5b8360020a9150848211156128e5576128e461241c565b5b5061294a565b5060208310610133831016604e8410600b84101617156129205782820a90508381111561291b5761291a61241c565b5b61294a565b61292d848484600161282b565b925090508184048111156129445761294361241c565b5b81810290505b9392505050565b600061295c82611a9f565b915061296783611a9f565b92506129947fffffffffffffffffffffffffffffffffffffffffffffffffffffffffffffffff848461287e565b90509291505056fea2646970667358221220fa52f9638d5a54c65128d643d29b5874500d817b2d8b53a75dcaed0d7786880564736f6c634300080c0033",
  "linkReferences": {},
  "deployedLinkReferences": {}
}