{
  "_format": "hh-sol-artifact-1",
  "contractName": "StatisticsContract",
  "sourceName": "contracts/StatisticsContract.sol",
  "abi": [
    {
      "inputs": [
        {
          "internalType": "address",
          "name": "_oracle",
          "type": "address"
        }
      ],
      "stateMutability": "nonpayable",
      "type": "constructor"
    },
    {
      "anonymous": false,
      "inputs": [
        {
          "indexed": true,
          "internalType": "address",
          "name": "from",
          "type": "address"
        },
        {
          "indexed": true,
          "internalType": "address",
          "name": "to",
          "type": "address"
        }
      ],
      "name": "OwnershipTransferRequested",
      "type": "event"
    },
    {
      "anonymous": false,
      "inputs": [
        {
          "indexed": true,
          "internalType": "address",
          "name": "from",
          "type": "address"
        },
        {
          "indexed": true,
          "internalType": "address",
          "name": "to",
          "type": "address"
        }
      ],
      "name": "OwnershipTransferred",
      "type": "event"
    },
    {
      "anonymous": false,
      "inputs": [
        {
          "indexed": true,
          "internalType": "uint256",
          "name": "period",
          "type": "uint256"
        }
      ],
      "name": "PeriodStatisticUpdated",
      "type": "event"
    },
    {
      "anonymous": false,
      "inputs": [],
      "name": "TotalStatisticUpdated",
      "type": "event"
    },
    {
      "inputs": [],
      "name": "acceptOwnership",
      "outputs": [],
      "stateMutability": "nonpayable",
      "type": "function"
    },
    {
      "inputs": [
        {
          "internalType": "uint256",
          "name": "period",
          "type": "uint256"
        }
      ],
      "name": "getByPeriod",
      "outputs": [
        {
          "internalType": "uint64",
          "name": "",
          "type": "uint64"
        },
        {
          "internalType": "uint64",
          "name": "",
          "type": "uint64"
        },
        {
          "internalType": "uint256",
          "name": "",
          "type": "uint256"
        }
      ],
      "stateMutability": "view",
      "type": "function"
    },
    {
      "inputs": [],
      "name": "getTotal",
      "outputs": [
        {
          "internalType": "uint64",
          "name": "",
          "type": "uint64"
        },
        {
          "internalType": "uint64",
          "name": "",
          "type": "uint64"
        },
        {
          "internalType": "uint256",
          "name": "",
          "type": "uint256"
        }
      ],
      "stateMutability": "view",
      "type": "function"
    },
    {
      "inputs": [],
      "name": "oracle",
      "outputs": [
        {
          "internalType": "address",
          "name": "",
          "type": "address"
        }
      ],
      "stateMutability": "view",
      "type": "function"
    },
    {
      "inputs": [],
      "name": "owner",
      "outputs": [
        {
          "internalType": "address",
          "name": "",
          "type": "address"
        }
      ],
      "stateMutability": "view",
      "type": "function"
    },
    {
      "inputs": [
        {
          "internalType": "uint256",
          "name": "",
          "type": "uint256"
        }
      ],
      "name": "periods",
      "outputs": [
        {
          "internalType": "uint64",
          "name": "documents",
          "type": "uint64"
        },
        {
          "internalType": "uint64",
          "name": "patients",
          "type": "uint64"
        },
        {
          "internalType": "uint256",
          "name": "time",
          "type": "uint256"
        }
      ],
      "stateMutability": "view",
      "type": "function"
    },
    {
      "inputs": [
        {
          "internalType": "address",
          "name": "_oracle",
          "type": "address"
        }
      ],
      "name": "setOracle",
      "outputs": [],
      "stateMutability": "nonpayable",
      "type": "function"
    },
    {
      "inputs": [
        {
          "internalType": "uint256",
          "name": "period",
          "type": "uint256"
        },
        {
          "internalType": "uint64",
          "name": "documents",
          "type": "uint64"
        },
        {
          "internalType": "uint64",
          "name": "patients",
          "type": "uint64"
        },
        {
          "internalType": "uint256",
          "name": "time",
          "type": "uint256"
        }
      ],
      "name": "setPeriod",
      "outputs": [],
      "stateMutability": "nonpayable",
      "type": "function"
    },
    {
      "inputs": [
        {
          "internalType": "uint64",
          "name": "documents",
          "type": "uint64"
        },
        {
          "internalType": "uint64",
          "name": "patients",
          "type": "uint64"
        },
        {
          "internalType": "uint256",
          "name": "time",
          "type": "uint256"
        }
      ],
      "name": "setTotal",
      "outputs": [],
      "stateMutability": "nonpayable",
      "type": "function"
    },
    {
      "inputs": [],
      "name": "total",
      "outputs": [
        {
          "internalType": "uint64",
          "name": "documents",
          "type": "uint64"
        },
        {
          "internalType": "uint64",
          "name": "patients",
          "type": "uint64"
        },
        {
          "internalType": "uint256",
          "name": "time",
          "type": "uint256"
        }
      ],
      "stateMutability": "view",
      "type": "function"
    },
    {
      "inputs": [
        {
          "internalType": "address",
          "name": "to",
          "type": "address"
        }
      ],
      "name": "transferOwnership",
      "outputs": [],
      "stateMutability": "nonpayable",
      "type": "function"
    }
  ],
  "bytecode": "0x60806040523480156200001157600080fd5b5060405162001367380380620013678339818101604052810190620000379190620003b7565b338060008073ffffffffffffffffffffffffffffffffffffffff168273ffffffffffffffffffffffffffffffffffffffff161415620000ad576040517f08c379a0000000000000000000000000000000000000000000000000000000008152600401620000a4906200044a565b60405180910390fd5b816000806101000a81548173ffffffffffffffffffffffffffffffffffffffff021916908373ffffffffffffffffffffffffffffffffffffffff160217905550600073ffffffffffffffffffffffffffffffffffffffff168173ffffffffffffffffffffffffffffffffffffffff1614620001345762000133816200021d60201b60201c565b5b5050506040518060600160405280600067ffffffffffffffff168152602001600067ffffffffffffffff16815260200142815250600360008201518160000160006101000a81548167ffffffffffffffff021916908367ffffffffffffffff16021790555060208201518160000160086101000a81548167ffffffffffffffff021916908367ffffffffffffffff1602179055506040820151816001015590505080600560006101000a81548173ffffffffffffffffffffffffffffffffffffffff021916908373ffffffffffffffffffffffffffffffffffffffff16021790555050620004de565b3373ffffffffffffffffffffffffffffffffffffffff168173ffffffffffffffffffffffffffffffffffffffff1614156200028f576040517f08c379a00000000000000000000000000000000000000000000000000000000081526004016200028690620004bc565b60405180910390fd5b80600160006101000a81548173ffffffffffffffffffffffffffffffffffffffff021916908373ffffffffffffffffffffffffffffffffffffffff1602179055508073ffffffffffffffffffffffffffffffffffffffff1660008054906101000a900473ffffffffffffffffffffffffffffffffffffffff1673ffffffffffffffffffffffffffffffffffffffff167fed8889f560326eb138920d842192f0eb3dd22b4f139c87a2c57538e05bae127860405160405180910390a350565b600080fd5b600073ffffffffffffffffffffffffffffffffffffffff82169050919050565b60006200037f8262000352565b9050919050565b620003918162000372565b81146200039d57600080fd5b50565b600081519050620003b18162000386565b92915050565b600060208284031215620003d057620003cf6200034d565b5b6000620003e084828501620003a0565b91505092915050565b600082825260208201905092915050565b7f43616e6e6f7420736574206f776e657220746f207a65726f0000000000000000600082015250565b600062000432601883620003e9565b91506200043f82620003fa565b602082019050919050565b60006020820190508181036000830152620004658162000423565b9050919050565b7f43616e6e6f74207472616e7366657220746f2073656c66000000000000000000600082015250565b6000620004a4601783620003e9565b9150620004b1826200046c565b602082019050919050565b60006020820190508181036000830152620004d78162000495565b9050919050565b610e7980620004ee6000396000f3fe608060405234801561001057600080fd5b50600436106100a95760003560e01c80637dc0d1d0116100715780637dc0d1d0146101305780638b2f66d41461014e5780638da5cb5b14610180578063a3f0ad531461019e578063ea4a1104146101ba578063f2fde38b146101ec576100a9565b8063108a76bc146100ae5780632ddbd13a146100ca578063775a25e3146100ea57806379ba50971461010a5780637adbf97314610114575b600080fd5b6100c860048036038101906100c39190610a6b565b610208565b005b6100d26102dd565b6040516100e193929190610adc565b60405180910390f35b6100f261031d565b60405161010193929190610adc565b60405180910390f35b610112610367565b005b61012e60048036038101906101299190610b71565b6104fc565b005b610138610548565b6040516101459190610bad565b60405180910390f35b61016860048036038101906101639190610bc8565b61056e565b60405161017793929190610adc565b60405180910390f35b6101886105ed565b6040516101959190610bad565b60405180910390f35b6101b860048036038101906101b39190610bf5565b610616565b005b6101d460048036038101906101cf9190610bc8565b6106fe565b6040516101e393929190610adc565b60405180910390f35b61020660048036038101906102019190610b71565b610750565b005b610210610764565b60405180606001604052808467ffffffffffffffff1681526020018367ffffffffffffffff16815260200182815250600360008201518160000160006101000a81548167ffffffffffffffff021916908367ffffffffffffffff16021790555060208201518160000160086101000a81548167ffffffffffffffff021916908367ffffffffffffffff160217905550604082015181600101559050507feccbd5201d4eb67f5ade9725336e23a9909e77d38ffbf78822b484f3642ea00f60405160405180910390a1505050565b60038060000160009054906101000a900467ffffffffffffffff16908060000160089054906101000a900467ffffffffffffffff16908060010154905083565b6000806000600360000160009054906101000a900467ffffffffffffffff16600360000160089054906101000a900467ffffffffffffffff16600360010154925092509250909192565b600160009054906101000a900473ffffffffffffffffffffffffffffffffffffffff1673ffffffffffffffffffffffffffffffffffffffff163373ffffffffffffffffffffffffffffffffffffffff16146103f7576040517f08c379a00000000000000000000000000000000000000000000000000000000081526004016103ee90610cb9565b60405180910390fd5b60008060009054906101000a900473ffffffffffffffffffffffffffffffffffffffff169050336000806101000a81548173ffffffffffffffffffffffffffffffffffffffff021916908373ffffffffffffffffffffffffffffffffffffffff1602179055506000600160006101000a81548173ffffffffffffffffffffffffffffffffffffffff021916908373ffffffffffffffffffffffffffffffffffffffff1602179055503373ffffffffffffffffffffffffffffffffffffffff168173ffffffffffffffffffffffffffffffffffffffff167f8be0079c531659141344cd1fd0a4f28419497f9722a3daafe3b4186f6b6457e060405160405180910390a350565b610504610833565b80600560006101000a81548173ffffffffffffffffffffffffffffffffffffffff021916908373ffffffffffffffffffffffffffffffffffffffff16021790555050565b600560009054906101000a900473ffffffffffffffffffffffffffffffffffffffff1681565b60008060006002600085815260200190815260200160002060000160009054906101000a900467ffffffffffffffff166002600086815260200190815260200160002060000160089054906101000a900467ffffffffffffffff1660026000878152602001908152602001600020600101549250925092509193909250565b60008060009054906101000a900473ffffffffffffffffffffffffffffffffffffffff16905090565b61061e610764565b60405180606001604052808467ffffffffffffffff1681526020018367ffffffffffffffff168152602001828152506002600086815260200190815260200160002060008201518160000160006101000a81548167ffffffffffffffff021916908367ffffffffffffffff16021790555060208201518160000160086101000a81548167ffffffffffffffff021916908367ffffffffffffffff16021790555060408201518160010155905050837f2cbed6a76c1d61d64f16f4c5b6a15073b53aadaf28df5bb5957aa86101976ec360405160405180910390a250505050565b60026020528060005260406000206000915090508060000160009054906101000a900467ffffffffffffffff16908060000160089054906101000a900467ffffffffffffffff16908060010154905083565b610758610833565b610761816108c3565b50565b600560009054906101000a900473ffffffffffffffffffffffffffffffffffffffff1673ffffffffffffffffffffffffffffffffffffffff163373ffffffffffffffffffffffffffffffffffffffff1614806107f257506107c36105ed565b73ffffffffffffffffffffffffffffffffffffffff163373ffffffffffffffffffffffffffffffffffffffff16145b610831576040517f08c379a000000000000000000000000000000000000000000000000000000000815260040161082890610d4b565b60405180910390fd5b565b60008054906101000a900473ffffffffffffffffffffffffffffffffffffffff1673ffffffffffffffffffffffffffffffffffffffff163373ffffffffffffffffffffffffffffffffffffffff16146108c1576040517f08c379a00000000000000000000000000000000000000000000000000000000081526004016108b890610db7565b60405180910390fd5b565b3373ffffffffffffffffffffffffffffffffffffffff168173ffffffffffffffffffffffffffffffffffffffff161415610932576040517f08c379a000000000000000000000000000000000000000000000000000000000815260040161092990610e23565b60405180910390fd5b80600160006101000a81548173ffffffffffffffffffffffffffffffffffffffff021916908373ffffffffffffffffffffffffffffffffffffffff1602179055508073ffffffffffffffffffffffffffffffffffffffff1660008054906101000a900473ffffffffffffffffffffffffffffffffffffffff1673ffffffffffffffffffffffffffffffffffffffff167fed8889f560326eb138920d842192f0eb3dd22b4f139c87a2c57538e05bae127860405160405180910390a350565b600080fd5b600067ffffffffffffffff82169050919050565b610a12816109f5565b8114610a1d57600080fd5b50565b600081359050610a2f81610a09565b92915050565b6000819050919050565b610a4881610a35565b8114610a5357600080fd5b50565b600081359050610a6581610a3f565b92915050565b600080600060608486031215610a8457610a836109f0565b5b6000610a9286828701610a20565b9350506020610aa386828701610a20565b9250506040610ab486828701610a56565b9150509250925092565b610ac7816109f5565b82525050565b610ad681610a35565b82525050565b6000606082019050610af16000830186610abe565b610afe6020830185610abe565b610b0b6040830184610acd565b949350505050565b600073ffffffffffffffffffffffffffffffffffffffff82169050919050565b6000610b3e82610b13565b9050919050565b610b4e81610b33565b8114610b5957600080fd5b50565b600081359050610b6b81610b45565b92915050565b600060208284031215610b8757610b866109f0565b5b6000610b9584828501610b5c565b91505092915050565b610ba781610b33565b82525050565b6000602082019050610bc26000830184610b9e565b92915050565b600060208284031215610bde57610bdd6109f0565b5b6000610bec84828501610a56565b91505092915050565b60008060008060808587031215610c0f57610c0e6109f0565b5b6000610c1d87828801610a56565b9450506020610c2e87828801610a20565b9350506040610c3f87828801610a20565b9250506060610c5087828801610a56565b91505092959194509250565b600082825260208201905092915050565b7f4d7573742062652070726f706f736564206f776e657200000000000000000000600082015250565b6000610ca3601683610c5c565b9150610cae82610c6d565b602082019050919050565b60006020820190508181036000830152610cd281610c96565b9050919050565b7f4f6e6c79206f776e657220616e64206f7261636c652063616e2075706461746560008201527f2073746174730000000000000000000000000000000000000000000000000000602082015250565b6000610d35602683610c5c565b9150610d4082610cd9565b604082019050919050565b60006020820190508181036000830152610d6481610d28565b9050919050565b7f4f6e6c792063616c6c61626c65206279206f776e657200000000000000000000600082015250565b6000610da1601683610c5c565b9150610dac82610d6b565b602082019050919050565b60006020820190508181036000830152610dd081610d94565b9050919050565b7f43616e6e6f74207472616e7366657220746f2073656c66000000000000000000600082015250565b6000610e0d601783610c5c565b9150610e1882610dd7565b602082019050919050565b60006020820190508181036000830152610e3c81610e00565b905091905056fea26469706673582212201294923f0772617d6b0689885fe17b49d5790b1cc0638ffd6fe6ad74da88daff64736f6c634300080c0033",
  "linkReferences": {},
  "deployedLinkReferences": {}
}